:020000040800F2
:10000000005000209D150008D1150008F5050008D6
:10001000FB050008010600080706000800000000B4
:10002000000000000000000000000000D1150008E2
:10003000D115000800000000D1150008D1150008F6
:10004000D1150008D1150008D1150008D1150008F8
:10005000D1150008D1150008D1150008D1150008E8
:10006000D1150008D1150008D1150008D1150008D8
:10007000D1150008D1150008D1150008D1150008C8
:10008000D1150008D1150008D1150008ED050008AC
:10009000F1050008D1150008F9040008D115000881
:1000A000D1150008D1150008D1150008D115000898
:1000B000D1150008D1150008D1150008D115000888
:1000C000D1150008D1150008D1150008D115000878
:1000D000D1150008D1150008D1150008D115000868
:1000E000D1150008D1150008D11500080000000046
:1000F0000000000000000000000000000000000000
:1001000000000000000000005FF808F110B5054C89
:10011000237833B9044B13B10448AFF300800123B3
:10012000237010BD8002002000000000784E0008FF
:100130000C4B43B10C4810B50C49AFF300800C4890
:10014000036823B910BD0A48036833B97047094BE7
:10015000002BF7D0BDE810401847064B002BF5D018
:10016000184700BF00000000784E000884020020FD
:100170007C02002000000000154B002B08BF134B31
:100180009D46A3F5803A00218B460F461348144A3A
:10019000121A03F04CF80F4B002B00D098470E4B6F
:1001A000002B00D098470020002104000D000D48CE
:1001B000002802D00C4800F037FD02F095FF200027
:1001C000290000F0DBFE00F081FE00BF0000080007
:1001D00000500020000000006D0F00088002002089
:1001E00050060020290C0008000000000C2370B508
:1001F00003FB00F22B4C0546A25C032A4FD8DFE834
:1002000002F0020F2036284802F00AF8274B33F894
:100210001530034203D00C235D430323635570BDA7
:10022000214801F0FDFF214B33F81530002814BFA1
:10023000002003F001000028F1D00C235D430223CD
:10024000ECE7194801F0ECFF184B33F815300028A3
:1002500014BF002003F001000C235D4300B3002312
:100260001348635502F019F96619706070BD0E48A5
:1002700001F0D6FF0D4B33F8153018404FF00C034A
:1002800003FB05F509D001230948635502F005F980
:1002900066197368C01AB06070BD605570BD5D436B
:1002A0000123BBE778030020B8020020F4000020FF
:1002B00058030020024B33F81010024802F094B8A3
:1002C000F4000020080300202DE9F047544802F014
:1002D000A3F8534802F0E1F80122524E524D327019
:1002E0003273327686F824202A780746032A00F2F1
:1002F0009480DFE802F002350A2E494802F0CDF87A
:100300004A4C2368C01A282801DC002426E044480F
:1003100002F0C3F84FF00C0820604FF001090024F0
:10032000DFF8FCA0042CE0B2EFD0FFF75FFF08FB82
:1003300004F306F8039033449B68B3F57A7F06DB39
:10034000504602F0A6F803F05BFA03232B70013449
:10035000E8E700240020FFF749FF3470254630E02D
:10036000334802F047F8002841D103F071FA4342C4
:1003700003F0030300F0030658BF5E42F0B2FFF73C
:1003800099FF40F2DD5503F063FA90FBF5F303FBB0
:100390001505234802F081F8264BB6B205F5FA752B
:1003A000044633F816102248ADB202F01DF81C487E
:1003B00002F073F8001BA84203DD00211C4802F084
:1003C00013F8174802F069F8C01BC82802DD14486A
:1003D00002F063F8124802F060F8001BA84203DD47
:1003E0000021134802F000F80020BDE8F0870C4817
:1003F00002F053F8B0F57A7F02DC00242546D6E7F8
:100400000B4801F0F7FF0F28F7D1054802F045F837
:100410000021074801F0E8FFEFE700242C709DE77A
:10042000580300207803002004030020A8030020C4
:1004300008030020F400002070B519234FF0FF34AA
:10044000254E8EB0254D0C940B940A940994089473
:1004500007940694059404940394029401940093E1
:10046000172218231621304601F070FE2A461C4937
:10047000304600F0D7FB1F231A4E0C940B940A94BD
:1004800009940894079406940594049403940294A0
:1004900001940093144C1E231D221C21304601F0B0
:1004A000FDFE2A461149304600F0BCFB1C2200210B
:1004B000204602F0BCFE20460D4C2D2102F054F8DF
:1004C000204602F004F82A4620460A490EB0BDE84C
:1004D000704000F0A7BB00BFB8020020F000002071
:1004E00011210008080300209C020020612200085E
:1004F00058030020F9230008364B70B55A69D2071B
:100500002AD59868344E99683040B04208BF012619
:10051000324D9A6801EA050108BF9E60A94208BFF2
:100520004FF480752E4C2B4B02EA040208BF9D60ED
:10053000A24204BF4FF480349C60274B984205D000
:10054000264B994202D0264B9A4205D1254B264A8A
:100550001B680121106898471E4CE2686369960782
:1005600007D09D0705D51F4B1F4A1B680021106847
:100570009847A169626963698C0709D5900507D519
:10058000190405D5174B184A1B68052110689847B0
:10059000104A9569546915F0040504F480645269A1
:1005A00008D03CB1120405D50E4B0F4A1B68072139
:1005B00010689847074B5B6955B14CB11B0407D5D0
:1005C000BDE87040074B084A1B68022110681847B5
:1005D00070BD00BF0064004001000004000100087D
:1005E00000000110B0030020AC030020FFF784BF1F
:1005F000FFF782BF102300F009B8202300F006B8EF
:10060000302300F003B8402300F000B8EFF3088077
:10061000042172460A4201D0EFF309809C46244B24
:10062000196802680A60043142680A60043182680D
:100630000A600431C2680A600431F0C147460F60A5
:1006400004314F460F60043157460F6004315F4656
:100650000F60043102690A60083142690A6004319E
:1006600082690A600431C2690A600431034620339A
:100670004FF40076324200D00433754610263542DE
:1006800000D148330C46103C2360EFF309820A6026
:100690000431EFF308820A60043172460A600431C3
:1006A000EFF314820A606046014900F0BDF9FEE7ED
:1006B0006445000830B50D0E91FAA1F4B4FA84F443
:1006C00091FAA1F10F23B1FA81F1A40003FA04F425
:1006D0004359890023EA040302FA01F11943415105
:1006E00030BD00007FB5224B04283DD8DFE800F084
:1006F00003101B2631009A691E4842F004029A61D9
:100700009B6903F004030193019B07B05DF804FBB0
:100710009A69194842F008029A619B6903F008033C
:100720000293029BF1E79A69144842F010029A6121
:100730009B6903F010030393039BE6E79A69104853
:1007400042F020029A619B6903F020030493049B0A
:10075000DBE79A690B4842F040029A619B6903F01B
:1007600040030593059BD0E7074802F075FA00BFE8
:100770000010024000080140000C01400010014040
:100780000014014000180140D8440008431C10B573
:10079000044604D176220649064802F029F90021D0
:1007A00000F06AFC012004F00F04A04010BD00BF5F
:1007B000F94400084B45000870B504464B1C0E4632
:1007C000218218D0C1F30310FFF78CFF0546304695
:1007D000FFF7DCFF238A084A03F00F0352F82330A7
:1007E0006561A36105F10803636005F11003143529
:1007F0002060A360E56070BD4C480008B0F91000AF
:1008000000F03ABD21B9082281694069FFF752BF63
:100810000122F9E708B501F0D1FB002008BD000076
:10082000104B10B51B68104C63B102F0D3F802F006
:10083000BBF823681844002323604FF47A73B0FB9D
:10084000F3F010BD01F020FC23682060C31A4FF4C0
:100850007A70064A9BB211680B441360B3FBF0F048
:1008600010BD00BFBC030020B8030020B40300206B
:1008700000B589B002F0D8F8052101A801F074FE96
:10088000104E114D0424019A039B30461A6002F069
:100890005BFA019A049B30461A6002F055FA013C5B
:1008A000F1D10424019A039B28461A6002F04CFA05
:1008B000019A049B28461A6002F046FA013CF1D1E5
:1008C000E0E700BFF0490200801A060010B50446B8
:1008D00002F0AAF8204603F038F82146024602202A
:1008E00000F03CFABDE8104002F0B4B810B5A2B078
:1008F0000B460246842101A803F05CF883280446D5
:1009000005D9052205490DF1830002F085FC002C74
:1009100002DD01A8FFF7DAFF22B010BD5E45000836
:100920000FB407B504A951F8040B0191FFF7DEFFDE
:1009300003B05DF804EB04B070470000F0B52C4C38
:10094000002526462B4F85B054F8252029463846E9
:100950000135FFF7E5FF0D2DF6D1A36C04F134014D
:100960000293636C24480193236C244C00930EC9BA
:10097000FFF7D6FF21682248FFF7D2FFE16AA26A9B
:10098000A36AA06A256BE76B000C01950090C3F386
:1009900007230297D2B21B48FFF7C2FFA36A1D06C6
:1009A00003D5616B1848FFF7BBFFA36A180403D592
:1009B000A16B1648FFF7B4FFF36C190712D5144862
:1009C000FFF7AEFF336DDA070FD51248FFF7A8FF28
:1009D000F36C5B074CBF1048104805B0BDE8F04011
:1009E000FFF79EBF0E48FFF79BFF0E48EEE700BFE4
:1009F000A0040020F84500080646000800ED00E0CD
:100A00005546000863460008B2460008C046000884
:100A1000CE460008DD4600080D47000819470008CB
:100A2000FD460008EA46000813B504461548FFF7DE
:100A300077FF302C17D0402C1AD0202C1DD1124813
:100A4000FFF76EFF114C1248FFF76AFFFFF776FFC2
:100A50001048FFF765FF00230F4A0093D26B0F4940
:100A6000204602F019F90E48FFF75AFF0D4CEAE74D
:100A70000D48FFF755FF0D4CE5E70D48FFF750FF18
:100A80000C4CE0E768450008914500083E01FF80F6
:100A9000BE450008C9450008A0040020E84500083C
:100AA000A04500083F01FF80A94500084001FF80E4
:100AB000B44500083D01FF8008B501F039FA00F0A7
:100AC00089FD01F027FA01F033FA0122014B1A6087
:100AD00008BD00BFBC03002000207047036801224E
:100AE0001B69002118470022036811461B6918473B
:100AF00003681B69184703689B69184703689B6A6A
:100B0000184700290CBF6FF0180000207047012023
:100B1000704770476FF01C0070476FF0150070470A
:100B2000012070470020704770470000F8B5154657
:100B30000C46064E8F18BC4205D014F8011B3046F7
:100B400000F016FDF7E72846F8BD00BFF4040020CA
:100B500038B58DB215F0010405D0084800F0E0FB6F
:100B6000041C18BF0124EB0605D5044800F0EEFB79
:100B700008B144F01004204638BD00BFF404002042
:100B800010B5044602F040FB204610BD10B50C46DF
:100B90002AB1044800F0D6FC2070012010BD104698
:100BA00010BD00BFF404002038B51D46074B0446B5
:100BB0000360074B1B6833B9064800F021FC294647
:100BC000044800F0F7FB204638BD00BF304700085E
:100BD000D0030020F404002000207047002070475C
:100BE0000C4A10B513681844EFF30881884205D306
:100BF0000C22094B4FF0FF301A6010BD07490C68FA
:100C000024B10749096821448842F1D2106018468E
:100C100010BD00BFFC0100204C060020C8030020CE
:100C2000CC030020012070470120704770477047B7
:100C300008B5FFF7FBFF08BD08B5FFF7F8FF08BDD3
:100C400008B5037803F00302012A0BD02AB140F261
:100C50008C520549054801F0CBFE43F002030370B6
:100C6000012008BD002008BD95470008E4470008A2
:100C700008B5037803F00302022A05D040F294522B
:100C80000449054801F0B4FE23F0030343F00103D7
:100C9000037008BD954700080A4800083F2870B552
:100CA00004462FDC184D55F820305A1C13D1022869
:100CB00011DCFFF793FF034658B92046FFF78CFF7E
:100CC000034630B9114E3378BFF35B8FDB0704D591
:100CD0000F4B45F82430184670BD3046FFF7B0FF83
:100CE0000028F5D04FF41653032202210848FFF7DD
:100CF0005BFF3046FFF7BCFF064A07490448FFF791
:100D000091FFE5E70023E6E7FC000020C003002098
:100D1000C4030020F0000020290B000838B5054668
:100D20000024FFF7BBFF0B4B43F8254030B902F01E
:100D300047F8092303604FF0FF3038BD03685B6953
:100D40009847051E04DA02F03BF86D420560F2E7B1
:100D5000204638BDFC000020FFF7E0BF38B50C4648
:100D60001546FFF79BFF38B902F02AF80923036004
:100D70004FF0FF34204638BD03682146DB682A4621
:100D80009847041EF6DA02F01BF864420460EFE7AD
:100D900008B5131E06DA02F013F8162303604FF0AD
:100DA000FF3008BD04D0FFF7D9FF40EAE07008BD6E
:100DB000184608BD38B50C461546FFF76FFF38B921
:100DC00001F0FEFF092303604FF0FF34204638BDD9
:100DD000036821469B682A469847041EF6DA01F00C
:100DE000EFFF64420460EFE7002A08B503DBBDE8CB
:100DF0000840FFF7DFBF01F0E3FF162303604FF069
:100E0000FF3008BD10B5FFF749FF044628B901F0CF
:100E1000D7FF09230360204610BD0368DB699847AC
:100E2000041EF8DA01F0CCFF644204600024F2E70B
:100E3000FFF7E8BF38B50C461546FFF72FFF38B966
:100E400001F0BEFF092303604FF0FF34204638BD98
:100E5000036821461B692A469847041EF6DA01F00A
:100E6000AFFF64420460EFE7FFF7E4BF10B5FFF7A0
:100E700015FF30B901F0A4FF092303604FF0FF30E4
:100E800010BD03689B699847041E04DA01F098FFBF
:100E900064420460F2E7002010BD000005460A4CE1
:100EA00008B52368986802F043F82368D86802F010
:100EB0003FF80120FFF7DAFF0220FFF7D7FF0DB15F
:100EC000FFF7D6FCFEE700BF0802002008B5FFF7D9
:100ED000E5FF38B50D46FFF7E1FE044630B901F0F5
:100EE0006FFF092303604FF0FF3038BD0368DB69F3
:100EF0009847002814BF4FF400534FF400436B6031
:100F0000236820469B6A98472861002038BDFFF778
:100F1000E0BF000013B5044602F06EF9034628B99D
:100F2000009022460249034801F0B6FE02B010BD0F
:100F3000784700081F01018002F066B970477047CA
:100F4000074B10B59A6807490748043A52F8044F0E
:100F500041F8044F8142F9D14FF000529A6010BD20
:100F600000ED00E0FCFFFF1FE800002008B5FFF7E0
:100F7000E7FFFFF7A1FDFFF7E2FF08BD08B5FFF7A8
:100F8000DDFFBDE80840FFF79FB930B50D0E91FABF
:100F9000A1F4B4FA84F491FAA1F10F23B1FA81F12A
:100FA000A40003FA04F44359890023EA040302FA73
:100FB00001F11943415130BD30B50D0E91FAA1F444
:100FC000B4FA84F491FAA1F10423B1FA81F1A400F6
:100FD00003FA04F44359890023EA040302FA01F1F5
:100FE0001943415130BD10B591FAA1F2B2FA82F223
:100FF00091FAA1F394000F22B3FA83F3090E40583B
:10100000A24010409B00D84010BD70B51646054662
:101010000C46FFF7E8FF012E0AD0022E1CD008284C
:1010200029D121462846BDE870400422FFF7ADBF14
:10103000042804D1082221462846FFF7A6FFEB68C2
:10104000240A94FAA4F223EA0404B2FA82F20123F5
:1010500093401C43EC6070BD042804D10822214653
:101060002846FFF792FFEB68240A23EA040394FA68
:10107000A4F4EB6070BD70BDB0F1FF3F2DE9F34704
:101080008246894604D13E227549764801F0B0FC7B
:101090001FFA80F8744B08F00F02C0F3031001F040
:1010A000070553F82240FFF71DFB012D06466F4F41
:1010B00040F0C780210E94FAA4F3B3FA83F394FAB4
:1010C000A4F04FF0030EB0FA80F072589B000EFAB5
:1010D00003F322EA03032A4680000EFA00FE43EAE5
:1010E0000E03735021463046013DFFF74EFF012DA0
:1010F00007D819F0080218BF042221463046FFF72E
:101100005BFFC9F3011221463046FFF77EFFBB6942
:1011100043F00103BB61BB6903F001030193019B31
:10112000A8F10D03012B79D8514A536823F0E063ED
:1011300043F080635360A8F11308B8F1010F77D82A
:101140006FE0BB69C9F3032243F00103BB61BB69D4
:1011500003F001030093009B82B1531E092B0DD8AD
:10116000DFE803F0050E151C232C353E454D404AA3
:10117000536843F0E06343F0010353600922B1E791
:101180003B4A536843F0E06343F00203F5E7384A13
:10119000536843F0E06343F00403EEE7344A5368D6
:1011A00043F0E06343F00803E7E7314A536823F074
:1011B000300343F0E06343F01003DEE72C4A53684A
:1011C00023F0C00343F0E06343F04003D5E7284A2F
:1011D000536823F4406343F0E06343F40063CCE7D7
:1011E000234A536843F0E06343F44073C5E7204962
:1011F0004B6843F0E06343F440634B6072E71C4A82
:10120000536823F4C04343F0E06343F48043B4E7FE
:1012100067221349174839E7002263E7BAF10F0F35
:1012200089D1134A536823F0E06343F0007353609D
:1012300002B0BDE8F087012221463046FFF7A5FE47
:1012400057E7032DE4D801A353F825F05D120008F9
:10125000371200084311000819120008082241E75C
:101260008C4800084B4500084C480008001002401C
:1012700000000140BB490008431C70B50E4604D174
:1012800088221A491A4801F0B3FB1A4B00F00F02EA
:10129000C0F3031053F82240FFF724FA2146054615
:1012A000FFF7A1FE20F00800012807D1F31E022B52
:1012B0000DD8042221462846FFF77EFE032E0BD1CF
:1012C000012221462846BDE87040FFF79EBE00225D
:1012D00021462846FFF770FE012EF1D0052E01D0E1
:1012E000022E01D10222ECE70022EAE78C48000836
:1012F0004B4500084C4800080FB407B5064B05AA3B
:101300001B680649D868019202F0D8F803B05DF86E
:1013100004EB04B0704700BF08020020DC4800085E
:101320004368094A9B01D35882B01A68120706D550
:10133000002201921A6801925A680192019A186873
:10134000C0F3401002B07047400500204368034AD4
:101350009B01D3581868C0F3C010704740050020A7
:10136000426810B4124904689201545053188268BC
:101370005A60C2689A600269DA6042691A61026A58
:101380009A610022DA84DA619A84DA859A85B0F962
:101390001A20013205D108225A61184610BC00F00B
:1013A00016BDB0F9182001320CBF04220C22F3E75D
:1013B0004005002010B581600C46FFF7D1FF28B131
:1013C0002146BDE810400248FFF796BF10BD00BFA0
:1013D000DC480008094B98420BD0A3F574439842AF
:1013E00009D003F5806398420CBF02204FF0FF3014
:1013F0007047002070470120704700BF003801404F
:10140000F0B50E4685B0044643493046154601F016
:10141000F7F842490746284601F0F2F801463846F7
:1014200001F0CAF82060013004D13D223C493D481A
:1014300001F0DEFA022E0AD0032D08D03649022030
:1014400001F0DEF887421BD1374801F005FC012787
:101450002068364B984215D103F558439A6942F4F7
:1014600080429A619B6903F480430193019BFFF7DB
:10147000B1FF0028606023DAA42229492C48D7E76D
:101480000027E5E72B4B98420BD103F5E633DA69E9
:1014900042F40032DA61DB6903F400330293029B09
:1014A000E5E7254B9842E2D103F5E433DA6942F4EB
:1014B0008022DA61DB6903F480230393039BD6E780
:1014C0001549304601F054F81449284601F050F807
:1014D000721C03D001213046FFF7CEFE6B1C03D0F7
:1014E00001212846FFF7C8FE4FF41653A3600023DE
:1014F0002683E36023616361236265832046FFF7EF
:101500002FFF3FB101220D4B21461A600C484C229F
:1015100001F082FE05B0F0BD904400084844000888
:10152000064900085A490008764900080038014079
:10153000AB4900080044004000480040D0030020B0
:10154000F404002038B5054644682846FFF7E8FE55
:101550000028FAD0054AA301D358E968586809B9A8
:10156000C0B238BDC0F3080038BD00BF4005002040
:1015700070B506460C4645683046FFF7E7FE002882
:10158000FAD0054AF168AB01D35811B9E4B25C60F6
:1015900070BDC4F30804FAE74005002008488546FA
:1015A000002103E0074B5B58435004310648074BCA
:1015B00042189A42F6D300F04DFCFEF7DDFDFEE73F
:1015C00000500020844E0008F0000020800200201F
:1015D000FEE77047074A08B51368032043F010037D
:1015E000136000F009F80F20FFF714F9FFF7F1FF7F
:1015F000002008BD00200240074A0002D36800F422
:10160000E06023F4E0631B041B0C43F0BF6343F46E
:1016100000330343D360704700ED00E003682DE919
:10162000F341DB07054610D42B689F075ED42B6877
:10163000190700F195802B685A0700F1BF80EA690D
:10164000002A40F02D81002014E0904C636803F0E4
:101650000C03042B07D0636803F00C03082B0CD198
:101660006368DE0309D523689C03DDD56B68002B16
:10167000DAD1012002B0BDE8F0816B68B3F5803F9C
:1016800010D1236843F480332360FFF7C9F806467E
:1016900023689803C8D4FFF7C3F8801B6428F7D9E0
:1016A0000320E7E79BB9236823F480332360236892
:1016B00023F480232360FFF7B3F8064623689903D9
:1016C000B2D5FFF7ADF8801B6428F7D9E8E7B3F58A
:1016D000A02F236803D143F480232360D1E723F4B0
:1016E00080332360236823F48023CDE7674C63684D
:1016F00013F00C0F07D0636803F00C03082B10D114
:101700006368DA030DD423689B0702D52B69012B8C
:10171000AFD123686A6923F0F80343EAC203236068
:1017200085E72A695A4B6AB101221A60FFF778F8F7
:10173000064623689F07ECD4FFF772F8801B022847
:10174000F7D9ADE71A60FFF76BF8064623689807EC
:101750007FF56DAFFFF764F8801B0228F6D99FE78D
:10176000AA694A4C4B4BDAB101221A60FFF758F8CC
:101770000646636A9B070DD54FF4FA52464B1B6829
:10178000B3FBF2F3019300BF019B5A1E0192002BA1
:10179000F9D150E7FFF744F8801B0228E9D97FE729
:1017A0001A60FFF73DF80646636A9F077FF543AF6F
:1017B000FFF736F8801B0228F6D971E7334CE3694E
:1017C000D80024D40127E36943F08053E361E3693F
:1017D00003F080530093009B304E3368D90518D531
:1017E000EB68012B26D1236A43F001032362FFF744
:1017F00017F841F288368046236A9B073FD5002FB1
:101800003FF41DAFE36923F08053E36117E700273E
:10181000E2E7336843F480733360FFF701F88046F2
:101820003368DA05DCD4FEF7FBFFA0EB0800642880
:10183000F6D935E7ABB9236A41F2883823F00103C2
:101840002362236A23F004032362FEF7E9FF0646BE
:10185000236A9807D3D5FEF7E3FF801B4045F7D9ED
:101860001EE7052B236A03D143F004032362BAE782
:1018700023F001032362236A23F00403B6E7FEF793
:10188000CFFFA0EB0800B042B6D909E70010024034
:1018900000004242800442420002002000700040EA
:1018A000224C636803F00C03082B3FF4E2AE0023E4
:1018B0001F4E022A33602BD1FEF7B2FF0746236882
:1018C00099011FD42B6AB3F5803F05D16268A968DE
:1018D00022F400320A436260696A62680B4322F4B0
:1018E00074121343636001233360FEF799FF0546CA
:1018F00023689A013FF5A7AEFEF792FF401B02282E
:10190000F6D9CDE6FEF78CFFC01B0228D7D9C7E673
:10191000FEF786FF054623689B017FF594AEFEF730
:101920007FFF401B0228F6D9BAE600BF0010024034
:101930006000424230B5194B87B002AC03F110058C
:10194000224618685968083303C2AB421446F7D1DF
:1019500001238DF80430022311498DF805304B68BE
:1019600003F00C02082A17D1C3F3834206A80244ED
:10197000DB0312F8102C0CD54B680A48C3F3404324
:10198000504306AA134413F8143CB0FBF3F007B01D
:1019900030BD05485043FAE70248F8E7BD49000862
:1019A0000010024000127A0000093D004D4A2DE966
:1019B000F0411368054603F007038B420E4628D317
:1019C0002A68910732D4D20738D4464A136803F004
:1019D00007039E4273D32A68434C12F0040F79D157
:1019E000130706D563682A6923F4605343EAC203E8
:1019F0006360FFF79FFF63683C4AC3F30313D35C44
:101A0000D8403B4B18600F20FEF704FF0020BDE8D4
:101A1000F081136823F007030B431360136803F08E
:101A200007039942CCD00120BDE8F0812E49A86877
:101A30004B6823F0F00303434B60C4E76A682A4C09
:101A4000012A23681CD113F4003FECD0636841F2F3
:101A5000883823F0030313436360FEF7E1FE6B68ED
:101A60000746012B14D1636803F00C03042BACD0A0
:101A7000FEF7D6FEC01B4045F5D90320BDE8F08136
:101A8000022A02D113F0007FDFE713F0020FDCE738
:101A9000022B0FD1636803F00C03082B95D0FEF7DF
:101AA000BFFEC01B4045F5D9E7E7FEF7B9FEC01BF6
:101AB0004045E2D8636813F00C0FF6D185E7136850
:101AC00023F0070333431360136803F007039E42B8
:101AD000A9D180E76368E96823F4E0630B4363609E
:101AE0007EE700BF0020024000100240E1490008EC
:101AF00000020020044B054A5B68C3F30223D35C59
:101B0000034A1068D840704700100240F1490008AD
:101B100000020020044B054A5B68C3F3C223D35C78
:101B2000034A1068D840704700100240F14900088D
:101B30000002002070470223026880F83D301368DD
:101B400043F001031360012380F83D30002070470B
:101B50001A4A036890420AD0B0F1804F07D0A2F52C
:101B60009432904203D002F58062904215D14A68C7
:101B700023F070031343114A90420AD0B0F1804F12
:101B800007D0A2F59432904203D002F580629042D1
:101B900003D1CA6823F4407313434A6923F08003D6
:101BA000134303608B68C3620B688362034B9842E4
:101BB00004BF0B690363012343617047002C01409C
:101BC00010B50446A0B190F83D3003F0FF021BB9F8
:101BD00080F83C20FFF7AEFF0223206884F83D30F8
:101BE000211DFFF7B5FF0123002084F83D3010BD13
:101BF000012010BD10B50124036A8C4023EA0403C0
:101C00000362036A8A401A43026210BD10B504469B
:101C100000220068FFF7EEFF2368104A93420DD1BF
:101C200041F21112196A114208D140F24442196A74
:101C3000114202BF5A6C22F400425A6441F211125E
:101C4000196A114208D140F24442196A114202BF96
:101C50001A6822F001021A60002010BD002C014019
:101C600010B5044601220068FFF7C4FF2368064A46
:101C70000020934202BF5A6C42F400425A641A6830
:101C800042F001021A6010BD002C0140FFF7E8BFCE
:101C90002DE9F0470568C2682B69016923F44053B8
:101CA00013432B618368EA680B43416922F4B05205
:101CB00022F00C020B431343EB606B69826923F43F
:101CC000407313436B61404B81469D424FF01904B2
:101CD00046D1FFF71FFF04FB00F3D9F804604FF073
:101CE0006408B600B3FBF6F3B3FBF8F31E01FFF78D
:101CF00011FF6043D9F804309B00B0FBF3F7FFF706
:101D000009FF6043D9F804309B00B0FBF3F3B3FB49
:101D1000F8F308FB13731B013233B3FBF8F303F042
:101D2000F007FFF7F7FE6043D9F804209200B0FBFC
:101D3000F2FAFFF7EFFE6043D9F804309B00B0FBE6
:101D4000F3F3B3FBF8F308FB13A31B013233B3FB2C
:101D5000F8F303F00F033B433344AB60BDE8F08777
:101D6000FFF7C8FE04FB00F3D9F804604FF06408E5
:101D7000B600B3FBF6F3B3FBF8F31E01FFF7BAFEB0
:101D80006043D9F804309B00B0FBF3F7FFF7B2FED5
:101D90006043D9F804309B00B0FBF3F3B3FBF8F3D6
:101DA00008FB13731B013233B3FBF8F303F0F007A6
:101DB000FFF7A0FE6043D9F804209200B0FBF2FACE
:101DC000FFF798FEB7E700BF00380140704710B535
:101DD000044640B390F8393003F0FF021BB980F895
:101DE0003820FFF7F3FF2423226884F83930D368C2
:101DF000204623F40053D360FFF74AFF23680020F6
:101E00001A6922F490421A615A6922F02A025A6130
:101E1000DA6842F40052DA602023E06384F8393053
:101E200084F83A3010BD012010BD7FB50F23022188
:101E300001934FF48062002301A80291039304925E
:101E40000593FFF7B3FDB0FA80F0400907B05DF8E5
:101E500004FB00000F4B1A6842F001021A60596837
:101E60000D4A0A405A601A6822F0847222F48032C5
:101E70001A601A6822F480221A605A6822F4FE025C
:101E80005A604FF41F029A604FF00062034B9A6051
:101E9000704700BF001002400000FFF800ED00E0B6
:101EA000012310B58AB00093A0B94FF48033019399
:101EB000022307934FF48033002408934FF4E01378
:101EC000684602940993FFF7A9FB30B9FFF7ADFF0D
:101ED0000AB010BD4FF4A023E9E72046F8E703233A
:101EE00010B58AB0009301230493102305930223B5
:101EF000002407934FF460136846019408940993F3
:101F0000FFF78CFB18B9FFF790FF0AB010BD204611
:101F1000FBE7000008B50120FFF7C2FF28B9FFF773
:101F2000DEFF10B9014800F097FE08BDCD4900085A
:101F3000114A124B516801F00C01042901D0082903
:101F40000AD00F49196052680E49C2F30312895C26
:101F50001A68CA401A60704751685068C1F38341DB
:101F6000C00301F1020102D407484143EAE7506887
:101F70008003F9D40248F8E7001002400002002074
:101F800000127A00E149000800093D00074B084AA9
:101F900013601A69910707D5DA68920704D56FF0C4
:101FA00002021A6100F01ABD704700BF000800402D
:101FB0000406002000487047FC490008224B37B552
:101FC000DA69224C42F00402DA61DA69002502F093
:101FD00004020192019A1A6942F004021A611A6914
:101FE00022F004021A61FFF7A3FF194B194A23607C
:101FF0004FF6FF73E360184B20461B682561B3FB67
:10200000F2F3013B6360A5606561A561FFF7D8FD50
:1020100029462046FFF73AFE104B114A9B6820469E
:10202000C3F8B8204FF080420E4B1A60FFF783FDD3
:102030002268D36823F00203D3600B4B1D600B4B67
:102040001D6003B030BD00BF001002400406002038
:102050000008004040420F000002002000ED00E0B8
:102060008D1F000800E100E0B8030020B403002049
:10207000044800210268D36823F00203D360FFF70D
:1020800005BE00BF04060020014B586A704700BF20
:10209000000800406FF00202044B1B6858631A618D
:1020A000DA6842F00202DA60704700BF04060020DE
:1020B0006FF00202054B1B681A615A6942F0020276
:1020C0005A61DA6842F00202DA60704704060020C2
:1020D000034B1A68D36823F00203D360704700BF34
:1020E000040600206FF00202014B1B681A61704762
:1020F0000406002008B500210348FFF787FDBDE86E
:102100000840FFF7E5BF00BF04060020704700004D
:1021100070B504460546074B00F1440644F8043BFD
:1021200054F8040B08B1FEF707FFB442F8D1284673
:1021300070BD00BF0C4A000810B50446FFF7E8FF69
:102140002046FEF7F9FE204610BD00002DE9F041C3
:102150000546002488B0ADF80430BDF938302F486A
:10216000ADF80630BDF93C302860ADF80830BDF957
:102170004030ADF80010ADF80A30BDF94430ADF88C
:102180000220ADF80C30BDF948306C64ADF80E306B
:10219000BDF94C302F1DADF81030BDF95030ADF801
:1021A0001230BDF95430ADF81430BDF95830ADF8E7
:1021B0001630BDF95C30ADF81830BDF96030ADF8BF
:1021C0001A30BDF96430ADF81C30BDF96830ADF897
:1021D0001E303DF91480B8F1FF3F1DD01C20FEF7E2
:1021E00099FE064600211C2201F021F841463046A6
:1021F00000F0A7F9B8F1FF3F47F8046B05D00123C1
:1022000003FA04F26B6C13436B640134102CE0D1BD
:10221000284608B0BDE8F0810026EBE70C4A00082C
:1022200070B5044654F8043B06469B689847002363
:102230001D4654F8042B42B15168126809681142D6
:1022400014BF012200229A4015430133102BF0D114
:1022500033683046DB689847284670BD70470000F9
:1022600070B504460546074B00F1440644F8043BAC
:1022700054F8040B08B1FEF75FFEB442F8D12846CB
:1022800070BD00BF244A000810B50446FFF7E8FF00
:102290002046FEF751FE204610BD00002DE9F0411A
:1022A0000546002488B0ADF80430BDF938302F4819
:1022B000ADF80630BDF93C302860ADF80830BDF906
:1022C0004030ADF80010ADF80A30BDF94430ADF83B
:1022D0000220ADF80C30BDF948306C64ADF80E301A
:1022E000BDF94C302F1DADF81030BDF95030ADF8B0
:1022F0001230BDF95430ADF81430BDF95830ADF896
:102300001630BDF95C30ADF81830BDF96030ADF86D
:102310001A30BDF96430ADF81C30BDF96830ADF845
:102320001E303DF91480B8F1FF3F1DD01C20FEF790
:10233000F1FD064600211C2200F079FF414630469F
:1023400000F012F9B8F1FF3F47F8046B05D0012304
:1023500003FA04F26B6C13436B640134102CE0D16C
:10236000284608B0BDE8F0810026EBE7244A0008C3
:1023700070B5044654F8043B05469B680E469847E2
:10238000002354F8042B42B146FA03F111F0010F77
:10239000106814BF9268D26810600133102BF0D11E
:1023A0002B682846BDE87040DB68184770B50446C6
:1023B00054F8043B06469B68984700231D4654F892
:1023C000042B42B1516812680968114214BF0122FE
:1023D00000229A4015430133102BF0D13368304668
:1023E000DB689847284670BD10B50446FFF7C0FF6C
:1023F000204610BDFFF7DABF10B5044600F014FB0D
:1024000023681BB1237F0BB100F080FC0023236005
:1024100000F020FB204610BD10B5044600F004FB80
:10242000236853B9237F0BB100F04EFCA06900F084
:10243000BBFA0123C4E902012360BDE8104000F0AB
:1024400009BB38B5044600F0EFFA236873B1A06900
:1024500000F0AAFA04F10805D5E90045041B61EB78
:10246000050500F0F7FA2046294638BD002400256E
:10247000F7E770B5064600F0D7FAD6E904453046CE
:10248000FFF7DFFF24184D4100F0E4FA204629460B
:1024900070BD08B5FFF7EDFF08BD08B5FFF7E9FF10
:1024A0004FF47A72002301F04BFD08BD10B50446CD
:1024B00000F0BAFAA06900F077FA00220023C4E91C
:1024C0000201C4E90423BDE8104000F0C3BA0023B0
:1024D00010B5002203600023C0E90223C0E90423F1
:1024E000044600F077FA0123A06123772046FFF726
:1024F000DDFF204610BD70B50E4604461546FEF7BA
:102500005BF9013609D020460021FEF77BF9294608
:102510002046BDE87040FEF771B970BD38B504467D
:102520000D4603685AB18268204613600121FEF708
:1025300069F929462046BDE83840FEF75FB9C26810
:10254000F2E70022FFF7D7BF70B50E4604461546E6
:10255000FEF732F9013606D02A462046BDE8704023
:102560000021FFF7DBBF70BD0022FFF7EDBF0000C9
:1025700013B5044601300FD102B010BD9C420AD100
:1025800020468968FEF778FD0021204602B0BDE8AC
:102590001040FEF771BE0C31B1F900305A1CEDD17C
:1025A0000023224600930249024800F075FB00BF59
:1025B000654A000830010180884207B502460AD00A
:1025C000431C08D0013105D000230549009305487C
:1025D00000F062FB0146084603B05DF804FB00BF53
:1025E000344A000830010180B1F900305A1C01D191
:1025F00018467047834201D1486870470C31F3E7B1
:10260000431C07B50AD0FFF7EFFF431C06D1002398
:10261000024600930349044800F03EFB03B05DF816
:1026200004FB00BF454A0008300101802DE9F74F47
:10263000D0F804A004469AF83A30002B46D103683B
:102640005B68984763681B6A98423FD0DAF820308D
:10265000DAF80840A0EB0308CAF82000DAF80C30DA
:10266000314808EA0308844246464FF0000727D065
:10267000DAE90A239AF83BB0A8FB0089CDE90023E8
:102680000025BBF1000F2BD05A464046494601F0C9
:102690003FFCDDE9002312EB080243EB09039046FF
:1026A0005A46994606460F4601F03EFCB8EB00003C
:1026B00069EB0101A94208BFA0420AD2CAE90A0196
:1026C000DAE90C23B6185F41CAE90C6703B0BDE82C
:1026D000F08F013647F10007001B61EB0501EDE7C4
:1026E00022462B464046494601F02AFC2246064631
:1026F0000F46404649462B4601F022FCDDE90089A1
:1027000018EB020849EB0309A94508BFA04502D20E
:10271000CAE90A89D4E7013647F10007B8EB040893
:1027200069EB0509F4E700BF40420F00824206D979
:102730008A420BD9884294BF00200120704788420A
:1027400006D98A428CBF00200120704701207047C3
:10275000002070472DE9F14F4768064697F83A3058
:10276000002B60D197F83930002B5CD1FFF75EFF6A
:1027700075686B68002B59D0D5E90C89D3E9000145
:10278000894508BF804505D333685B6901B0BDE862
:10279000F04F1847B0EB080861EB0909D5E90623AB
:1027A0004B4508BF42452C6906D3AB68254A934286
:1027B0000FD1444528BF44462A6A3B6A1444EA685C
:1027C0001440A34221D14FF484721F491F4800F0E6
:1027D0000FF995F83B20DFF878A04FF0000B7AB1A5
:1027E0004046494601F0A0FB10EB0A0041EB0B010B
:1027F000144A002301F0A4FB844228BF0446DBE70F
:10280000A3FB080103FB0911EEE7336820461B69AF
:10281000984733685B68984722460146386AFFF755
:1028200085FF0028B0D101B0BDE8F08F3B69386A60
:10283000FA681844336810401B6901B0BDE8F04FD6
:10284000184700BF40420F00764A0008C04A0008FF
:102850003F420F002DE9F04F436885B093F83820D0
:102860000546002A64D193F83A30002B60D1036802
:102870001B6898472B68DB699847076827B92D22A2
:102880002D492E4800F0B4F81F23012202FA03F16B
:102890008F425FFA83FB02D0013BF7D19B46D0F811
:1028A00004A0AAF104031C2B01D93B22E8E7072668
:1028B0009E40002317F1FF30214C43F1FF313A468F
:1028C000C4FB060101F03CFB00236C682A6823600E
:1028D000636052680393CDE9000190474FF0000810
:1028E0004FF0000920626C685246C4E90A89A7606B
:1028F00084F83BB00120002101F016FBDDE9002344
:10290000C4E90623039B013884F8393084F83A304F
:102910000123E06026612846C4E90C8984F8383038
:10292000FFF784FE284605B0BDE8F04FFFF712BF61
:1029300005B0BDE8F08F00BF764A0008BB4900082B
:1029400040420F0070B5044600F06EF82368DB6863
:102950009847636893F83A201AB1BDE8704000F0D8
:1029600079B8012283F8392063685B68A3B12046F7
:10297000FFF75CFE65686E68D5E90C01D6E90023B7
:10298000994208BF904207D3F3686B602B68002B15
:10299000EAD0B0689847E7E700226368204683F8EA
:1029A0003920FFF7D7FED8E738B50446FFF752FFC6
:1029B00000F03AF82046FFF739FE6368D3E90C458A
:1029C00000F048F82046294638BD08B5FFF7ECFF6F
:1029D00008BD000000487047E44A0008024B1B682D
:1029E0000BB102481847704704020020E44A00086F
:1029F00004460D46164607B500F016F800962B461D
:102A000000222146014800F047F900BF4401FF8041
:102A1000EFF31080C04300F001007047EFF3058032
:102A2000003018BF0120704710B5074C23680133F0
:102A300004D1512205490648FFF7DAFF00F094F966
:102A400023680133236010BD180400200C4B0008DC
:102A5000594B0008054B1A6832B11A68013A1A60DE
:102A60001B680BB900F092B9704700BF1804002032
:102A70000122D0E84F3FC0E8412F0029F9D1D8B258
:102A8000003018BF01207047D0E85F3F0B449BB275
:102A9000C0E8523F002AF7D118467047D0E85F3FA0
:102AA0005B1A9BB2C0E8523F002AF7D11846704724
:102AB00008B50B48FFF7DCFF28B1FFF7B5FFBFF300
:102AC0004F8F20BFFDE7FFF7A9FF08B1FDF7D0FE4C
:102AD000FFF79EFF0028F9D00120FEF7F7F900BFAD
:102AE0005C04002070B5164C0D4634EA200428BF63
:102AF000044616468EB03422002101A800F097FB50
:102B0000019402960395FFF78FFF0E4A1368013375
:102B1000012B136004D1342201A90B4800F07CFB87
:102B2000342201A9094800F077FB094B1B680BB15F
:102B300006489847FFF78EFF00200EB070BD00BF1B
:102B40000101FF801C0400202804002060040020F4
:102B5000200400202DE9F0412E4C0E4621688046CD
:102B6000C1F34173032B0CBF4D428DB2C1F3074338
:102B7000174629482A46FDF7D3FE6FF498731D4483
:102B8000132D0FD8DFE805F00A2D3033363C393FDE
:102B90000E0E0E0E0E0E0E0E0E0E0E42A1681F48E9
:102BA000FDF7BEFE4046FDF791FE61681C48FDF74B
:102BB000B7FE4EB11B48FDF789FE3046FDF786FE95
:102BC00039461948FDF7ACFEA1681848FDF7A8FE84
:102BD00021681748FDF7A4FEBDE8F0411548FDF750
:102BE0009FBEA1681448DBE7A1681448D8E7A16834
:102BF0001348D5E7A1681348D2E7A1681248CFE788
:102C0000A1681248CCE7A1681148C9E71148FDF74F
:102C100087FEC7E7600400209F4B0008F04B0008C8
:102C2000984C0008A94C0008B14C0008B54C0008AD
:102C3000C94C0008154D0008064C0008164C000849
:102C4000254C0008384C00084C4C0008604C00082B
:102C50006F4C0008854C00080FB407B50B4875464B
:102C6000FFF706FF044670B901462A460848FFF7F9
:102C700039FF214607482246FFF76CFF05A9049853
:102C80000191FDF733FEFFF713FF00BF240400207E
:102C90000001FF808A4B000880B506460948F046CF
:102CA0000C4617461D46FFF7E3FE48B94246394633
:102CB0003046FFF717FF029A29462046FFF74AFFE2
:102CC000FFF7F6FE2404002013B5FFF7ADFE4FF624
:102CD000FF730B4C22889A4208D1FFF7BBFE0023FA
:102CE0002288009307490848FFF7D6FF01212046B4
:102CF000FFF7CAFE02B0BDE81040FFF7ABBE00BF51
:102D0000940400202F4D00082301048037B50B4C9C
:102D1000FFF78AFE258845B9FFF79CFE22880095BB
:102D20002B4607490748FFF7B7FF01212046FFF769
:102D3000B5FE03B0BDE83040FFF78CBE9404002020
:102D4000544D00082401048070B50446FFF742FE8C
:102D50000646FFF73AFE05463046FFF736FE401BB3
:102D6000A042F9D370BD0000EFF31083DB4372B6CD
:102D7000044A117829B9044903F001030B700123B7
:102D800013707047970400209604002008B5EFF3F5
:102D90001083DB0704D4362205490648FFF728FED6
:102DA0000022054B1A70054B1B7803B162B608BDB3
:102DB000724D0008C64D00089704002096040020BC
:102DC000014B1868704700BF080200208A892DE96E
:102DD000F041054610070C465AD44B68002B05DC21
:102DE0000B6C002B02DC0020BDE8F081E66A002EAF
:102DF000F9D0002312F480522F682B6033D0606D1D
:102E0000A3895A0705D56368C01A636B0BB1236C9D
:102E1000C01A00230246E66A216A2846B047431CCE
:102E2000A38906D129681D294BD82B4ACA40D60749
:102E300047D5002262602269D904226004D5421C71
:102E400001D12B6803B96065616B2F600029CAD07E
:102E500004F14403994202D0284601F0FDF9002014
:102E60006063BDE8F081216A01232846B047411C18
:102E7000C6D12B68002BC3D01D2B01D0162B01D13E
:102E80002F60B0E7A38943F04003A381BDE8F08140
:102E90000F69002FA7D0930718BF00230E6808BF43
:102EA0004B69A6EB07080F608B60B8F1000F9ADD45
:102EB00043463A46216A2846A66AB047002807DCFE
:102EC000A38943F04003A3814FF0FF30BDE8F081B8
:102ED0000744A8EB0008E8E70100402038B50B697B
:102EE00005460C46DBB118B183690BB900F072F8E6
:102EF0000C4B9C4209D16C68B4F90C307BB1214673
:102F00002846BDE83840FFF761BF074B9C4201D11E
:102F1000AC68F1E7054B9C4208BFEC68ECE7002089
:102F200038BD00BF004E0008204E0008E04D0008EC
:102F3000014620B9044B0549186800F0B7B8044BA6
:102F40001868FFF7CBBF00BF404E0008DD2E000819
:102F500008020020014900F0A9B800BFDD2E0008DA
:102F6000002310B50446036043608360818143669B
:102F7000C281036143618361194608225C3000F01D
:102F800056F9054B24626362044BA362044BE3626F
:102F9000044B236310BD00BFC5380008E7380008A4
:102FA0001F3900084339000870B568254A1E55438B
:102FB0000E4605F1740101F04BF9044640B10021C1
:102FC00080E842000C30A06005F1680200F02FF9A3
:102FD000204670BD836910B5044633BB8364C36467
:102FE0000365124B124A1B688262984204BF012398
:102FF000836100F01FF86060204600F01BF8A060BD
:10300000204600F017F80022E06004216068FFF716
:10301000A7FF01220921A068FFF7A2FF02221221C7
:10302000E068FFF79DFF0123A36110BD404E00083B
:10303000552F0008F8B51C4B07461E68B36913B935
:103040003046FFF7C7FF4836B4687368013B03D5C5
:10305000336833B13668F7E7B4F90C506DB16834B2
:10306000F4E704213846FFF79FFF30600028F1D1D4
:103070000C2304463B602046F8BD4FF6FF73E38106
:1030800001236566A3812560A56065602561656192
:10309000A5610822294604F15C0000F0C8F86563C8
:1030A000A563A564E564E6E7404E00082DE9F84312
:1030B00080468946002600F1480414B93046BDE830
:1030C000F883A5686768013F01D52468F5E7AB89F7
:1030D000012B07D9B5F90E30013303D029464046FC
:1030E000C84706436835EEE770B500250C4E0D4C19
:1030F000A41BA410A54209D101F09AF900250A4E9B
:103100000A4CA41BA410A54205D170BD56F8253069
:1031100098470135EEE756F8253098470135F2E734
:10312000700200207002002070020020780200204F
:1031300070B50E46B1F90E1090B0002914461D4628
:1031400007DA00232B60B3891A0610D44FF480638A
:103150000EE001AA00F01EFD0028F2DB029A02F444
:103160007042A2F500535A425A412A60EEE74023CA
:103170000020236010B070BD8B8973B59D07064693
:103180000C4607D504F147032360236101236361E3
:1031900002B070BD01AB6A46FFF7CAFF0099054651
:1031A000304601F055F848B9B4F90C309A05EFD41F
:1031B00023F0030343F00203A381E3E70D4BB36263
:1031C000A389206043F08003A381009B2061636199
:1031D000019B5BB1B4F90E10304600F0EDFC28B154
:1031E000A38923F0030343F00103A381A3891D43B3
:1031F000A581CDE7552F0008024B0146186801F064
:1032000027B800BF08020020024B0146186801F0F1
:1032100023B800BF0802002010B5431E0A449142A3
:1032200000D110BD11F8014B03F8014FF7E7034639
:103230000244934200D1704703F8011BF9E79368F9
:1032400010B4013B002B936008DA9469A34202DBBF
:10325000CBB20A2B02D110BC00F0BABB1368581CC9
:1032600010601970C8B210BC7047F8B506460F461A
:103270001446D518AC4201D1002007E03A4614F8B4
:10328000011B3046FFF7DBFF431CF3D1F8BD000004
:103290002DE9F04F9DB00C4617460393064618B132
:1032A00083690BB9FFF796FE7C4B9C4257D174683B
:1032B000A38918075DD52369002B5AD000230993F1
:1032C00020238DF8293030234FF0010B8DF82A3060
:1032D000B846454615F8013B002B55D1B8EB070A17
:1032E0000BD053463A4621463046FFF7BEFF013029
:1032F00000F0C480099B5344099398F80030002BD8
:1033000000F0BC8000234FF0FF3204930793059236
:1033100006938DF853301A9305222978604800F0FF
:103320006DFC05F10108049B002831D1D90644BF8A
:1033300020228DF853201A0744BF2B228DF85320EA
:103340002A782A2A2CD000210A20079AA84698F821
:1033500000300135303B092B6DD971B326E0514B5C
:103360009C4201D1B468A3E74F4B9C4208BFF4686C
:103370009EE72146304600F08FFB00289ED04FF09C
:10338000FF301DB0BDE8F08F252BA7D0A846A0E7E1
:10339000434A4546801A0BFA00F018430490BBE7F5
:1033A000039A111D12680391002A01DB079204E0C1
:1033B000524243F002030792049398F800302E2BF8
:1033C00010D198F8013008F101012A2B37D1039B65
:1033D00008F102081A1D1B680392002BB8BF4FF0BA
:1033E000FF330593314D032298F80010284600F072
:1033F00005FC40B14023401B03FA00F0049B08F198
:1034000001080343049398F800100622284808F1A5
:1034100001078DF8281000F0F1FB002834D0254B6F
:1034200003BB039B073323F0070308330393099B74
:103430004B4409934CE700FB0232012186E700234D
:103440000A2518460593884698F800200131303A3D
:10345000092A03D9002BC5D00590C3E705FB00203E
:103460000123F0E703AB00932246134B04A9304637
:10347000AFF30080B0F1FF3F8146D8D1A3895B064E
:103480003FF57DAF09987CE703AB009322460A4BDA
:1034900004A9304600F094F8ECE700BF004E0008A5
:1034A000444E0008204E0008E04D00084A4E000837
:1034B0004E4E0008000000006B32000813460A461A
:1034C000014602480068FFF7E3BE00BF0802002083
:1034D0002DE9F04791461F468A680B6906469342DC
:1034E000B8BF1346C9F8003091F843200C46DDF808
:1034F000208012B10133C9F800302368990642BF19
:10350000D9F800300233C9F80030256815F00605F7
:1035100007D104F1190AE368D9F800209B1A9D42EB
:103520002ADB94F843302268003318BF0123920647
:103530002FD404F1430239463046C047013022D02F
:103540002368E56803F00603042B18BF0025D9F8AB
:1035500000204FF0000908BFAD1AA368226908BF18
:1035600025EAE5759342C4BF9B1AED181A344D4500
:103570001BD10020BDE8F087012352463946304672
:10358000C047013003D14FF0FF30BDE8F08701356F
:10359000C1E73020E11881F843005A1C94F8451027
:1035A0002244023382F84310C3E7012322463946FE
:1035B0003046C0470130E6D009F10109D7E70000E5
:1035C0002DE9F04317460A7E85B06E2A98460646D6
:1035D0000C460C9B01F1430E00F0BC801AD8632A04
:1035E0002ED00AD8002A00F0C880582A00F08A801D
:1035F00004F1420584F842202AE0642A01D0692AB5
:10360000F6D121681A6811F0800F23D0111D1960BE
:10361000136827E0732A00F0B48008D86F2A2AD0F4
:10362000702AE5D10A6842F020020A6003E0752A98
:1036300021D0782ADCD178226F4984F8452064E0D3
:103640001A6801F14205111D1960136884F84230AF
:103650000123A3E011F0400F02F104011960D7D05B
:10366000B2F90030002B03DA2D225B4284F84320AC
:1036700062490A2217E02068196810F0800F03D011
:10368000081D18600B6806E010F0400F01F10400FF
:103690001860F7D00B886F2A14BF0A2208225749F6
:1036A000002084F843006568002DA560C0F29C806E
:1036B000206820F004002060002B3FD1002D40F056
:1036C00095807546082A0BD12368DA0708D5236947
:1036D00062689A42DEBF302305F8013C05F1FF35F0
:1036E000AEEB05032361CDF800803B4603AA2146DB
:1036F0003046FFF7EDFE013055D14FF0FF3005B0F9
:10370000BDE8F08381F845203C492268186812F032
:10371000800F00F104051D6001D0036802E055062A
:10372000FBD50388D00744BF42F0200222601BB9BA
:10373000226822F0200222601022B1E77546B3FB16
:10374000F2F002FB1033CB5C05F8013D0346002884
:10375000F5D1B7E708681A6810F0800F496904D0FE
:10376000101D18601368196007E010F0400F02F197
:10377000040018601368F6D0198000237546236191
:10378000B1E71A68111D19601568002162682846A2
:1037900000F034FA08B1401B6060636823610023C5
:1037A00084F843309FE723692A4639463046C047AC
:1037B0000130A2D023689B0707D5002504F1190921
:1037C000E368039A9B1A9D4205DBE068039B9842DD
:1037D000B8BF184693E701234A4639463046C047EA
:1037E00001308AD00135EBE7002BA7D10B7804F12B
:1037F000420584F8423065E7664E0008554E0008E1
:1038000038B5124B05461C68A36BD3B91820FFF7D7
:10381000F3FC43F20E33A06303804AF6CD334380BA
:1038200041F2342383804EF26D63C3804DF6EC6326
:103830000381052343810B23012283810023C0E9F7
:1038400004230022A36B1D615A6138BD08020020C9
:10385000194B10B51C68A36BD3B91820FFF7CCFC2B
:1038600043F20E33A06303804AF6CD33438041F226
:10387000342383804EF26D63C3804DF6EC63038185
:10388000052343810B23012283810023C0E9042304
:10389000A16B0A480A694B695043094C04FB0300B9
:1038A000A2FB04230132034443F10003C1E90423D2
:1038B00023F0004010BD00BF080200202DF4515835
:1038C0002D7F954C10B50C46B1F90E1000F00EFB93
:1038D0000028ABBF636DA3891B1823F48053ACBFD2
:1038E0006365A38110BD2DE9F0411F468B89054614
:1038F000DB050C46164605D502230022B1F90E1051
:1039000000F06AF9A389324623F48053A381B4F905
:103910000E103B462846BDE8F04100F0ABB810B5AC
:103920000C46B1F90E1000F057F9431CA38915BFDE
:10393000606523F4805343F48053A38118BFA381AF
:1039400010BDB1F90E1000F015B9034613F8012BA4
:10395000002AFBD1181A0138704730B5141E0546ED
:103960009BB0184605DA8B234FF0FF302B601BB05D
:1039700030BD4FF40273ADF80C300CBF234604F198
:10398000FF33029305934FF6FF7300910491ADF856
:103990000E3002461E9B6946284600F0B3F9431CD0
:1039A000BCBF8B232B60002CE1D00022009B1A703F
:1039B000DDE7000007B5009313460A4601460348B9
:1039C0000068FFF7CAFF03B05DF804FB080200209F
:1039D000F8B50E461446054618B183690BB9FFF7D2
:1039E000F9FA214B9C422AD16C68A369A360A38990
:1039F0001A072ED5236963B323692068F6B2C01A6B
:103A000063693746984204DB21462846FFF766FA89
:103A100028BBA3680130013BA36023685A1C2260C5
:103A20001E706369984204D0A389DB0719D50A2E5A
:103A300017D121462846FFF751FA90B10FE00B4B02
:103A40009C4201D1AC68D0E7094B9C4208BFEC68AE
:103A5000CBE72146284600F01FF80028CCD04FF0D5
:103A6000FF373846F8BD00BF004E0008204E000862
:103A7000E04D000838B50546084611460022054CC1
:103A800022601A46FDF784F9431C02D1236803B172
:103A90002B6038BD4C060020324B70B51D680646C1
:103AA0000C4625B1AB6913B92846FFF793FA2E4BA4
:103AB0009C420FD16C68B4F90C309AB215072CD423
:103AC000D00611D40922326043F04003A3814FF0A5
:103AD000FF3070BD254B9C4201D1AC68EBE7244B15
:103AE0009C4208BFEC68E6E7510712D5616B41B113
:103AF00004F14403994202D0304600F0ADFB0023AC
:103B00006363A38923F02403A381002363602369F3
:103B10002360A38943F00803A38123694BB9A389D8
:103B200003F42073B3F5007F03D021463046FFF73E
:103B300023FBA28912F001030CD00023A360636968
:103B40005B42A361236953B9B4F90C3013F08000D0
:103B5000BAD170BD920758BF6369A360F2E7002035
:103B6000F7E700BF08020020004E0008204E0008C2
:103B7000E04D000838B50023054C05460846236093
:103B8000FDF7EAF8431C02D1236803B12B6038BD6E
:103B90004C06002038B50023064C05460846114661
:103BA0002360FDF7B4F9431C02D1236803B12B60F5
:103BB00038BD00BF4C06002038B50023054C054633
:103BC00008462360FDF734F9431C02D1236803B192
:103BD0002B6038BD4C06002038B505460846114616
:103BE0000022054C22601A46FDF73EF9431C02D123
:103BF000236803B12B6038BD4C06002010B5C9B254
:103C000002449042034601D1002010BD1C780130CF
:103C10008C42F6D1184610BD884210B501EB020364
:103C200003D8421E99420CD110BD9842F9D2811896
:103C3000D21AD34200D110BD13F8014D01F8014D45
:103C4000F7E711F8014B02F8014FEBE72DE9F047D8
:103C50008E6882469E420C469146984635D88A899F
:103C600012F4906F31D00223256809696F1A6569D3
:103C700005EB450595FBF3F508F101033B449D4237
:103C800038BF1D46530531D5294600F0E1FA0646F6
:103C900050B90C23CAF80030A3894FF0FF3043F02D
:103CA0004003A381BDE8F0873A462169FFF7B4FAE3
:103CB000A38923F4906343F08003A38126613E44EB
:103CC000266046466561ED1BA560464528BF464611
:103CD000494632462068FFF79FFFA36800209B1BE0
:103CE000A36023681E442660BDE8F0872A4600F0E2
:103CF000B1FA06460028E1D12169504600F0ACFA3D
:103D0000C7E700002DE9F04F9DB003938B898046F3
:103D10001C060D4616460FD50B696BB9402100F005
:103D200097FA2860286128B90C23C8F800304FF0B2
:103D3000FF30C4E040236B610023099320238DF8FA
:103D4000293030234FF0010B8DF82A3037463C469E
:103D500014F8013B002B3CD1B7EB060A0BD05346BD
:103D6000324629464046FFF771FF013000F0A2803D
:103D7000099B534409933B78002B00F09B80002360
:103D80004FF0FF3204930793059206938DF853305A
:103D90001A93052221785048FFF730FF671C049BD7
:103DA000D8B9D90644BF20228DF853201A0744BF42
:103DB0002B228DF8532022782A2A16D000210A209F
:103DC000079A27463B780134303B092B50D9C9B1BB
:103DD00011E0252BC0D02746B9E73F4A3C46801A60
:103DE0000BFA00F018430490D3E7039A111D1268F0
:103DF0000391002A01DB079204E0524243F00203E0
:103E0000079204933B782E2B0DD17B78791C2A2BBB
:103E100032D1039B02371A1D1B680392002BB8BFD7
:103E20004FF0FF3305932D4C032239782046FFF7DE
:103E3000E5FE38B14023001B03FA00F0049B013774
:103E4000034304933978062225487E1C8DF82810F8
:103E5000FFF7D4FE002835D0224BFBB9039B073374
:103E600023F0070308330393099B4B4409936DE741
:103E700000FB02320121A4E700230A24184605931F
:103E80000F463A780131303A092A03D9002BCAD0BB
:103E90000590C8E704FB00200123F1E703AB009382
:103EA0002A46114B04A94046AFF30080B0F1FF3F12
:103EB0008146D9D1AB895B063FF539AF09981DB072
:103EC000BDE8F08F03AB00932A46074B04A9404698
:103ED000FFF776FBEAE700BF444E00084A4E0008B1
:103EE0004E4E0008000000004D3C000838B5054665
:103EF000084611460022054C22601A46FCF774FF62
:103F0000431C02D1236803B12B6038BD4C0600204E
:103F1000D0400B1CD1409C46203AD340184352421B
:103F200063469340184370479140031C90409C4661
:103F3000203A9340194352426346D3401943704795
:103F400053B94AB9002908BF00281CBF4FF0FF3100
:103F50004FF0FF3000F07AB9ADF1080C6DE904CEF6
:103F600000F006F8DDF804E0DDE9022304B0704754
:103F70002DE9F0478C460E460446089D002B50D193
:103F80008A4217466CD9B2FA82FEBEF1000F0BD0FE
:103F9000CEF1200C01FA0EF620FA0CFC02FA0EF714
:103FA0004CEA060C00FA0EF43A0CBCFBF2F9BBB278
:103FB00002FB19CC09FB03FA4FEA144848EA0C4605
:103FC000B2450AD9F61909F1FF3180F02581B245D1
:103FD00040F22281A9F102093E44A6EB0A06B6FB93
:103FE000F2F002FB106600FB03F3A4B244EA0644BD
:103FF000A34209D9E41900F1FF3280F00B81A342FA
:1040000040F2088102383C440021E41A40EA0940A9
:10401000002D62D0002324FA0EF42C606B60BDE802
:10402000F0878B4207D9002D55D0002185E841004B
:104030000846BDE8F087B3FA83F1002940F08F808D
:10404000B34202D3824200F2FC80841A66EB03067C
:104050000120B446002D40D085E81010BDE8F0875F
:1040600012B90127B7FBF2F7B7FA87FEBEF1000FCE
:1040700035D10121F61B4FEA174C1FFA87F8B6FB22
:10408000FCF20CFB126608FB02F0230C43EA064626
:10409000B04207D9F61902F1FF3302D2B04200F262
:1040A000D2801A46361AB6FBFCF00CFB106608FBF1
:1040B00000F8A3B243EA0644A04507D9E41900F189
:1040C000FF3302D2A04500F2B9801846A4EB0804E1
:1040D00040EA02409CE729462846BDE8F08707FAF7
:1040E0000EF7CEF1200326FA03F24FEA174CB2FB8B
:1040F000FCF11FFA87F80CFB112206FA0EF620FAE3
:1041000003F301FB08F933431E0C46EA0246B145AE
:1041100000FA0EF409D9F61901F1FF3280F08C8013
:10412000B14540F2898002393E44A6EB0906B6FB50
:10413000FCF00CFB106200FB08F99EB246EA024656
:10414000B14507D9F61900F1FF3371D2B1456FD9E6
:1041500002383E44A6EB090640EA01418FE7C1F16F
:10416000200722FA07F88B4048EA030326FA07F4EF
:104170004FEA134EB4FBFEF91FFA83FC0EFB194401
:104180008E4020FA07F809FB0CFA48EA06084FEAC5
:10419000184646EA0444A24502FA01F200FA01F682
:1041A00008D9E41809F1FF3044D2A24542D9A9F157
:1041B00002091C44A4EB0A04B4FBFEF00EFB1044FD
:1041C00000FB0CFC1FFA88F848EA0444A44507D910
:1041D000E41800F1FF3E29D2A44527D902381C4437
:1041E00040EA0940A0FB0289A4EB0C0CCC45C24676
:1041F000CE4615D312D055B1B6EB0A036CEB0E06C2
:1042000006FA07F7CB401F43CE402F606E600021B7
:10421000BDE8F0871046F7E68946DEE64645EAD275
:10422000B8EB020A69EB030E0138E4E77046D7E702
:1042300018468FE78146BDE7114676E702383C44D1
:1042400044E7084606E7023A3E442BE7704700BFC2
:1042500000F050B800F0ACB800F000B838B5054632
:10426000002943D051F8043C0C1F002BB8BFE418C0
:10427000FCF7DEFC1E4A1368104633B96360146015
:104280002846BDE83840FCF7D7BCA3420BD92168CB
:104290006218934201BF1A685B685218226063601B
:1042A0000460EDE713465A680AB1A242FAD91968C8
:1042B0005818A0420BD12068014458188242196056
:1042C000DED110685268014419605A60D8E702D9FB
:1042D0000C232B60D4E7206821188A4201BF1168A3
:1042E00052680918216062605C60C9E738BD00BF90
:1042F0009804002070B5CD1C25F0030508350C2D61
:1043000038BF0C25002D064601DBA94203D90C233A
:104310003360002070BDFCF78BFC234A14682146F3
:1043200091B9224C23681BB9304600F067F8206031
:104330002946304600F062F8431C26D10C23304653
:104340003360FCF779FCE4E70B685B1B1AD40B2B9A
:104350000FD90B60CC18CD503046FCF76DFC04F142
:104360000B00231D20F00700C31A1BD05A42E25055
:1043700070BD8C420BBF63684B681360636018BFED
:104380000C46E9E70C464968CAE7C41C24F003045C
:10439000A04205D0211A304600F030F80130CDD0CF
:1043A0002560D9E770BD00BF980400209C04002060
:1043B000F8B5074614460E4621B91146BDE8F84047
:1043C000FFF746BF22B9FFF747FF25462846F8BD4D
:1043D00000F024F884420FD921463846FFF738FF11
:1043E00005460028F2D031462246FEF715FF314639
:1043F0003846FFF731FFE9E73546E7E738B50023F0
:10440000054C054608462360FCF7EAFB431C02D135
:10441000236803B12B6038BD4C06002051F8040C12
:104420000028A0F10400BCBF0B58C0187047000062
:10443000F8B500BFF8BC08BC9E467047F8B500BF91
:10444000F8BC08BC9E4670470300000000440040D2
:10445000100000000A0000000038014010000000B9
:104460001700000000380140100300001B0000008E
:1044700000480040100000002B00000000480040F1
:1044800010050000FFFF0000FFFFFFFF000000001D
:10449000020000000044004012000000090000007B
:1044A00000380140120000001600000000380140F2
:1044B000120300001A000000004800401200000033
:1044C0002A0000000048004012050000FFFF000025
:1044D000FFFFFFFF0000000050696E6D61702065F6
:1044E00072726F723A2077726F6E6720706F72749B
:1044F000206E756D6265722E002F6275696C647333
:104500002F77732F6D6265642D6F732D63695F6DF7
:10451000626564322D6275696C642D4743435F4167
:10452000524D40322F6D6265642D6F732F7461722E
:10453000676574732F5441524745545F53544D2F50
:104540006770696F5F6170692E630070696E20210A
:104550003D202850696E4E616D65294E43002E2E18
:104560002E0A0000A00400200A2B2B204D62656457
:104570004F53204661756C742048616E646C65729F
:10458000202B2B0A0A4661756C74547970653A20A9
:10459000004D656D4D616E6167654661756C7400B7
:1045A0004275734661756C74005573616765466149
:1045B000756C7400486172644661756C74000A0A17
:1045C000436F6E746578743A000A0A2D2D204D628F
:1045D00065644F53204661756C742048616E646C4D
:1045E0006572202D2D0A0A004661756C742065786D
:1045F00063657074696F6E000A52252D34643A2029
:104600002530386C58000A53502020203A2025309D
:10461000386C580A4C522020203A202530386C58EB
:104620000A50432020203A202530386C580A785010
:104630005352203A202530386C580A5053502020CD
:104640003A202530386C580A4D535020203A202506
:1046500030386C58000A43505549443A20253038C8
:104660006C58000A48465352203A202530386C587E
:104670000A4D4D4653523A202530386C580A42466E
:104680005352203A202530386C580A554653522050
:104690003A202530386C580A44465352203A202597
:1046A00030386C580A41465352203A202530386C35
:1046B00058000A4D4D4641523A202530386C58007A
:1046C0000A42464152203A202530386C58000A4DA3
:1046D0006F6465203A20546872656164000A507204
:1046E0006976203A2055736572000A507269762007
:1046F0003A2050726976696C65676564000A4D6F8F
:104700006465203A2048616E646C6572000A5374D7
:1047100061636B3A20505350000A537461636B3AE3
:10472000204D535000000000000000000000000079
:10473000290B0008810B00088D0B00082D0B0008C9
:10474000150B0008250B0008D90A0008210B0008EA
:10475000DD0A0008E70A00081B0B0008F10A000840
:10476000F70A0008FD0A0008030B00080F0B0008F9
:10477000510B0008130B00084F70657261746F7263
:10478000206E6577206F7574206F66206D656D6F84
:1047900072790D0A002F6275696C64732F77732F1D
:1047A0006D6265642D6F732D63695F6D6265643240
:1047B0002D6275696C642D4743435F41524D403211
:1047C0002F6D6265642D6F732F706C6174666F72EC
:1047D0006D2F6D6265645F72657461726765742EBA
:1047E0006370700030203D3D20282A677561726437
:1047F0005F6F626A6563742026204358415F4755A6
:104800004152445F4D41534B29004358415F475546
:104810004152445F494E49545F494E5F50524F47A1
:1048200052455353203D3D20282A67756172645FCD
:104830006F626A6563742026204358415F47554183
:1048400052445F4D41534B2900000000010100001C
:10485000020200000404000008080000101000001C
:104860002020000040400000808000000100010482
:1048700002000204040004040800080410001004EC
:104880002000200440004004800080042F627569ED
:104890006C64732F77732F6D6265642D6F732D6356
:1048A000695F6D626564322D6275696C642D474382
:1048B000435F41524D40322F6D6265642D6F732FFF
:1048C000746172676574732F5441524745545F5346
:1048D000544D2F70696E6D61702E630043616E6E72
:1048E0006F7420696E697469616C697A65205541DD
:1048F0005254207769746820626175642072617413
:10490000652025750A002F6275696C64732F7773B3
:104910002F6D6265642D6F732D63695F6D626564D1
:10492000322D6275696C642D4743435F41524D409F
:10493000322F6D6265642D6F732F746172676574B9
:10494000732F5441524745545F53544D2F73657232
:1049500069616C5F6170692E63006F626A5F732DBD
:104960003E7561727420213D2028554152544E619C
:104970006D65294E43004572726F723A206E6577FD
:104980002073657269616C206F626A656374206967
:1049900073207573696E672073616D652055415290
:1049A0005420617320535444494F006F626A5F730F
:1049B0002D3E696E646578203E3D20300002030480
:1049C00005060708090A0B0C0D0E0F10105365742D
:1049D000537973436C6F636B206661696C65640A1D
:1049E00000000000000000000001020304060708A8
:1049F00009000000000102030400000040420F0013
:104A0000100000000000000000000000112100085C
:104A1000392100080D2100080D21000800000000C8
:104A20000000000061220008892200085D220008C1
:104A30005D22000870696E6D6170206D69732D6D67
:104A4000617463680070696E6D6170206E6F7420B0
:104A5000666F756E6420666F72207065726970682B
:104A60006572616C00636F756C64206E6F7420708A
:104A7000696E6F7574002F6275696C64732F77733C
:104A80002F6D6265642D6F732D63695F6D62656460
:104A9000322D6275696C642D4743435F41524D402E
:104AA000322F6D6265642D6F732F68616C2F6D629C
:104AB00065645F7469636B65725F6170692E630022
:104AC0006D617463685F7469636B20213D2071754B
:104AD0006575652D3E7469636B5F6C6173745F729D
:104AE00065616400EC4A0008D803002071200008CA
:104AF00089200008D1200008E52000089520000842
:104B0000B1200008F5200008B51F00082F62756964
:104B10006C64732F77732F6D6265642D6F732D63D3
:104B2000695F6D626564322D6275696C642D4743FF
:104B3000435F41524D40322F6D6265642D6F732F7C
:104B4000706C6174666F726D2F6D6265645F637205
:104B500069746963616C2E6300637269746963616F
:104B60006C5F73656374696F6E5F7265656E747296
:104B7000616E63795F636F756E746572203C20555A
:104B8000494E5433325F4D415800466174616C2088
:104B900052756E2D74696D65206572726F72000AB0
:104BA0000A2B2B204D6265644F53204572726F7241
:104BB00020496E666F202B2B0A4572726F7220534C
:104BC00074617475733A203078255820436F64659A
:104BD0003A202564204D6F64756C653A2025640A7F
:104BE0004572726F72204D6573736167653A20007C
:104BF0004B65726E656C204572726F723A20307828
:104C0000256C582C20005468726561643A20307815
:104C1000256C582C20004D757465783A2030782525
:104C20006C582C200053656D6170686F72653A2076
:104C30003078256C582C20004D656D6F7279506F5F
:104C40006F6C3A203078256C582C20004576656EC4
:104C500074466C6167733A203078256C582C2000BC
:104C600054696D65723A203078256C582C20004DBF
:104C700065737361676551756575653A2030782590
:104C80006C582C2000417373657274696F6E2066D6
:104C900061696C65643A20000A4C6F636174696FE6
:104CA0006E3A203078256C58000A46696C653A20C7
:104CB000002B2564000A4572726F722056616C7574
:104CC000653A203078256C58000A466F72206D6F67
:104CD000726520696E666F2C2076697369743A205C
:104CE00068747470733A2F2F61726D6D6265642EF3
:104CF0006769746875622E696F2F6D6265646F7382
:104D00002D6572726F722F3F6572726F723D3078CF
:104D100025303858000A2D2D204D6265644F5320F0
:104D20004572726F7220496E666F202D2D0A004405
:104D3000656570536C6565704C6F636B206F76654D
:104D400072666C6F7720283E2055534852545F4D51
:104D50004158290044656570536C6565704C6F63FC
:104D60006B20756E646572666C6F7720283C20300E
:104D700029002F6275696C64732F77732F6D6265DC
:104D8000642D6F732D63695F6D626564322D62758A
:104D9000696C642D4743435F41524D40322F6D6231
:104DA00065642D6F732F68616C2F6D6265645F633E
:104DB0007269746963616C5F73656374696F6E5F58
:104DC0006170692E6300216172655F696E7465723E
:104DD00072757074735F656E61626C65642829001A
:104DE00000000000000000000000000000000000C3
:104DF00000000000000000000000000000000000B3
:104E000000000000000000000000000000000000A2
:104E10000000000000000000000000000000000092
:104E20000000000000000000000000000000000082
:104E30000000000000000000000000000000000072
:104E40000C020020232D302B2000686C4C0065667E
:104E500067454647003031323334353637383941CB
:104E600042434445460030313233343536373839E1
:0C4E7000616263646566000000000000E1
:084E7C00FCB2FF7F0100000001
:104E8400000000000100020004000800FFFFFFFF13
:104E9400FFFFFFFFFFFFFFFF000000000000000016
:104EA40000000000000000000000000000000000FE
:104EB40000000000000000000000000000000000EE
:104EC40000000000000000000000000000000000DE
:104ED40000000000000000000000000000000000CE
:104EE40000000000000000000000000000000000BE
:104EF40000000000000000000000000000000000AE
:104F0400000000000000000000000000000000009D
:104F1400000000000000000000000000000000008D
:104F2400000000000000000000000000000000007D
:104F3400000000000000000000000000000000006D
:104F4400000000000000000000000000000000005D
:104F5400000000000000000000000000000000004D
:104F6400000000000000000000000000000000003D
:104F7400000000000000000000000000000000002D
:104F840000000000000000000000000050060020A7
:104F940000A24A04452900080C0200200000000079
:104FA400004E0008204E0008E04D000800000000FC
:104FB40000000000000000000000000000000000ED
:104FC40000000000000000000000000000000000DD
:104FD40000000000000000000000000000000000CD
:104FE40000000000000000000000000000000000BD
:104FF40000000000000000000000000000000000AD
:1050040031010008390400080D0100080000000007
:040000050800159D3D
:00000001FF
